:107000000C9456380C9468380C9468380C94683892
:107010000C9468380C9468380C9468380C94683870
:107020000C9468380C9468380C9468380C94683860
:107030000C9468380C9468380C9468380C94683850
:107040000C9468380C9468380C9468380C94683840
:107050000C9468380C9468380C9468380C94683830
:107060000C9468380C9468380C9468380C94683820
:107070000C9468380C9468380C9468380C94683810
:107080000C9468380C9468380C9468380C94683800
:107090000C9468380C9468380C9468380C946838F0
:1070A0000C9468380C9468380C94683811241FBE0E
:1070B000CFEFDAE0DEBFCDBF21E0A0E0B1E001C05C
:1070C0001D92AD38B207E1F70E94C5390C94203B00
:1070D0000C940038CF93DF93D82FC62F2E9882E0E0
:1070E0000E94193B8D2F0E94193B8C2F0E94193B47
:1070F0002E9ADF91CF910895CF93269A2E9880EC07
:107100000E94193B2E9A60E88FE00E946A3860E086
:107110008AE20E946A3860E989E20E946A3862E085
:1071200088E20E946A38C0E32E9882E00E94193BF0
:107130008C2F0E94193B2E9AC05FC036A9F760E0E1
:1071400080E60E946A3869E380E00E946A3860EE57
:1071500081E00E946A386FEF80E20E946A3860EE38
:1071600081E20E946A3860E082E20E946A3860E050
:1071700083E20E946A38C4E06FEF8C2F0E946A3865
:10718000CF5FCA30C9F760E08BE20E946A3860E0E6
:107190008FE0CF910C946A382E9880EA0E94193BB8
:1071A00080E00E94193B2E9A08950E94CC3881708D
:1071B0000895FF920F931F93CF93DF93EC01F62E68
:1071C000072F142F2E9880E40E94193BCE0123E054
:1071D000969587952A95E1F70E94193B8C2F829509
:1071E000880F807E0E94193B80E00E94193B80E05E
:1071F0000E94193B812F0E94193BCF2DD02FCE0129
:10720000810F911D8C01C017D10721F089910E9437
:10721000193BF9CF2E9A2E9881E80E94193B2E9A9D
:107220000E94CC3883FFFCCFDF91CF911F910F914B
:10723000FF9008950F931F93CF93DF938C012E98A7
:1072400080E90E94193BE801035F1F4F80E00E9424
:10725000193B8993C017D107C9F72E9ADF91CF91B7
:107260001F910F91089540918401442369F065E8CE
:1072700071E081EB90E00E94D9381092840188EE91
:1072800093E000000197E9F7089590918401E92FB8
:10729000F0E0EB57FE4F80839F5F9093840198301E
:1072A00010F4803111F40C94333908950F931F9327
:1072B000CF93DF93CDB7DEB72D970FB6F894DEBF2F
:1072C0000FBECDBF9091000180910101981320C0A5
:1072D0000E94D5388823E1F38E010F5F1F4FC8014C
:1072E0000E941A399D8180910001F8012E2F201BE8
:1072F000291760F4A82FB0E0AE5FBE4F25812C9314
:107300008F5F823808F080E03196F0CF80930001E3
:1073100090910101E92FF0E0EE5FFE4F80819F5FC9
:10732000923818F49093010102C0109201012D9639
:107330000FB6F894DEBF0FBECDBFDF91CF911F9186
:107340000F910895CF93DF93D82FC0E0CD1721F090
:107350000E945639CF5FFACFDF91CF910895A8955B
:107360000895F894E0E6F0E090819861908380833E
:10737000789408950E945639803221F088E00E9466
:10738000B139FFCF84E10C944539CF93DF93CDB76A
:10739000DEB7C858D1090FB6F894DEBF0FBECDBF17
:1073A00014B7F8940E94AF3984B7877F84BF809167
:1073B000600088618093600010926000789413FFF1
:1073C00007C0E0E0F0E085919491019609F01BC1BF
:1073D0000E940B3B0E947C388DE00E94B13983E40F
:1073E0000E94453981E40E9445398EE40E94453966
:1073F0008EE40E94453989E50E94453986E70E945E
:10740000453981E30E94453981E20E9445390E9455
:1074100033397E0181E8E80EF11C670198E0C90E5E
:10742000D11C87010E945639D8018D938D01AC156E
:10743000BD05C1F700E010E0F801E058F048E49124
:10744000D7018D917D01E81769F085E10E944539EA
:1074500080E10E944539F801E058F04880810E949F
:107460004539FFCF0F5F1F4F0830110529F784E121
:107470000E94453980E10E94453980E00E94B1397F
:10748000A89500E81FE773E0A72E99249394E5E000
:107490008E2EF1E17F2E0E945639803309F4ADC063
:1074A000813489F40E945639F82E0E94BA39B2E824
:1074B000FB1619F0E1E8FE1202C081E001C083E092
:1074C0000E9445399CC0823411F484E103C08534A4
:1074D00021F484E00E94A23990C0853579F40E949D
:1074E0005639E82EF12C0E945639082F10E0102F43
:1074F00000270E0D1F1D000F111F7FC0863539F4A8
:1075000084E00E94A2390E94BA3980E0D9CF843643
:1075100009F042C00E9456390E945639B82E0E9486
:107520005639CE0101967C016C018C2D8E198B157C
:1075300030F40E945639D6018D936D01F6CFF9993A
:10754000FECFF801A0925700E89507B600FCFDCFEA
:1075500020E02B15B0F4D7013C91F801E20FF11DAA
:1075600011968C9190E0982F8827830F911D0C0124
:1075700090925700E89511242E5FB2E0EB0EF11CBB
:10758000E8CFF80180925700E89507B600FCFDCFE0
:1075900070925700E89531C08437B1F40E94563993
:1075A0000E945639D82E0E9456390E94BA39780165
:1075B0008E2D801B8D1518F5F70184910E94453999
:1075C000FFEFEF1AFF0AF4CF853751F40E94BA3962
:1075D0008EE10E94453985E90E94453987E870CFE0
:1075E000813521F488E00E94B13907C08F3F29F42A
:1075F0000E9456398032E1F702C00E94BA3980E118
:107600000E94453948CF80E00E94B139A895212ECB
:107610000C940000DDCEE4E6F0E080818B7F808377
:1076200084B1876084B981E58CBD85B1866085B9F8
:1076300008958EBD00000DB407FEFDCF8EB50895F0
:04764000F894FFCFEC
:097F800031323334353637380054
:040000030000700089
:00000001FF
