:107000000C9456380C9468380C9468380C94683892
:107010000C9468380C9468380C9468380C94683870
:107020000C9468380C9468380C9468380C94683860
:107030000C9468380C9468380C9468380C94683850
:107040000C9468380C9468380C9468380C94683840
:107050000C9468380C9468380C9468380C94683830
:107060000C9468380C9468380C9468380C94683820
:107070000C9468380C9468380C9468380C94683810
:107080000C9468380C9468380C9468380C94683800
:107090000C9468380C9468380C9468380C946838F0
:1070A0000C9468380C9468380C94683811241FBE0E
:1070B000CFEFDAE0DEBFCDBF21E0A0E0B1E001C05C
:1070C0001D92AD38B207E1F70E94C3390C94593BC9
:1070D0000C940038CF93DF93D82FC62F2E9882E0E0
:1070E0000E94523B8D2F0E94523B8C2F0E94523B9C
:1070F0002E9ADF91CF910895CF93269A2E9880EC07
:107100000E94523B2E9A60E88FE00E946A3860E04D
:107110008AE20E946A3860EF89E20E946A3866E873
:1071200088E20E946A38C0E32E9882E00E94523BB7
:107130008C2F0E94523B2E9AC05FC036A9F760E0A8
:1071400080E60E946A3869E380E00E946A3860EE57
:1071500081E00E946A386FEF80E20E946A3860EE38
:1071600081E20E946A3860E082E20E946A3860E050
:1071700083E20E946A38C4E06FEF8C2F0E946A3865
:10718000CF5FCA30C9F760E08BE20E946A3860E0E6
:107190008FE0CF910C946A382E9880EA0E94523B7F
:1071A00080E00E94523B2E9A08950E94CC38817054
:1071B0000895FF920F931F93CF93DF93EC01F62E68
:1071C000072F142F2E9880E40E94523BCE0123E01B
:1071D000969587952A95E1F70E94523B8C2F8295D0
:1071E000880F807E0E94523B80E00E94523B80E0EC
:1071F0000E94523B812F0E94523BCF2DD02FCE01B7
:10720000810F911D8C01C017D10721F089910E9437
:10721000523BF9CF2E9A2E9881E80E94523B2E9A2B
:107220000E94CC3883FFFCCFDF91CF911F910F914B
:10723000FF9008950F931F93CF93DF938C012E98A7
:1072400080E90E94523BE801035F1F4F80E00E94EB
:10725000523B8993C017D107C9F72E9ADF91CF917E
:107260001F910F9108954091840165E871E081EBD1
:1072700090E00E94D9381092840188EE93E00000DB
:107280000197E9F7089590918401E92FF0E0EB5719
:10729000FE4F80839F5F90938401983010F480317B
:1072A00011F40C94333908950F931F93CF93DF9308
:1072B000CDB7DEB72D970FB6F894DEBF0FBECDBFAA
:1072C0009091000180910101981320C00E94D5384F
:1072D0008823E1F38E010F5F1F4FC8010E941A3906
:1072E0009D8180910001F8012E2F201B291760F449
:1072F000A82FB0E0AE5FBE4F25812C938F5F823800
:1073000008F080E03196F0CF809300019091010168
:10731000E92FF0E0EE5FFE4F80819F5F923818F416
:107320009093010102C0109201012D960FB6F894BE
:10733000DEBF0FBECDBFDF91CF911F910F9108959A
:10734000CF93DF93D82FC0E0CD1721F00E9454399E
:10735000CF5FFACFDF91CF910895A8950895F89463
:10736000E0E6F0E0908198619083808378940895BE
:107370000E945439803221F088E00E94AF39FFCF5B
:1073800084E10C944339CF93DF93CDB7DEB7C8586F
:10739000D1090FB6F894DEBF0FBECDBF14B7F89475
:1073A0000E94AD3984B7877F84BF80916000886177
:1073B0008093600010926000789413FF07C0E0E0B3
:1073C000F0E085919491019609F056C10E94443BEA
:1073D0000E947C388FE00E94AF3983E40E944339D9
:1073E00081E40E9443398EE40E9443398EE40E9476
:1073F000433989E50E94433986E70E94433981E396
:107400000E94433981E20E9443390E9433397E0150
:1074100081E8E80EF11C570198E0A90EB11C870124
:107420000E945439D8018D938D01AA15BB05C1F76F
:10743000D70100E010E0F801E058F048E4918D91A8
:10744000E81769F085E10E94433980E10E944339E1
:10745000F801E058F04880810E944339FFCF0F5F68
:107460001F4F0830110539F784E10E94433980E14C
:107470000E94433980E00E94AF39A89500E81FE7D9
:10748000E3E04E2E55245394F5E07F2EA1E16A2EC1
:107490000E945439803309F4E9C0813489F40E9490
:1074A0005439D82E0E94B839B2E8DB1619F0E1E859
:1074B000DE1202C081E001C083E00E944339D8C0DF
:1074C000823411F484E103C0853421F484E00E9405
:1074D000A039CCC0853579F40E945439C82ED12CFE
:1074E0000E945439082F10E0102F00270C0D1D1D8D
:1074F000000F111FBBC0863539F484E00E94A0390B
:107500000E94B83980E0D9CF843609F042C00E9489
:1075100054390E945439382E0E945439CE010196B4
:107520006C014C01882D8C19831530F40E9454395C
:10753000D4018D934D01F6CFF999FECFF801409219
:107540005700E89507B600FCFDCF20E02315B0F406
:10755000D6013C91F801E20FF11D11968C9190E05B
:10756000982F8827830F911D0C0150925700E895A2
:1075700011242E5FB2E0CB0ED11CE8CFF80170923F
:107580005700E89507B600FCFDCF60925700E895DC
:107590006DC08437B9F40E9454390E945439982E32
:1075A0000E9454390E94B83968018C2D801B8915BE
:1075B00008F05EC0F60184910E944339FFEFCF1AB4
:1075C000DF0AF3CF853751F40E94B8398EE10E946B
:1075D000433985E90E94433987E86FCF813521F42B
:1075E00088E00E94AF3942C08F3F29F40E9454398D
:1075F0008032E1F73DC08A3709F038C067010E9448
:107600005439D6018D936D01AA15BB05C1F70E94AF
:10761000B839F999FECFF80140925700E89507B6BE
:1076200000FCFDCFD70198012E193F09F901EA0F9F
:10763000FB1F11968C91119790E0982F88274C9101
:10764000840F911D0C0150925700E8951124129659
:10765000AA15BB0559F7F80170925700E89507B6CF
:1076600000FCFDCF60925700E89502C00E94B83937
:1076700080E10E9443390CCF80E00E94AF39A89589
:10768000212E0C940000A2CEE4E6F0E080818B7FF6
:10769000808384B1876084B981E58CBD85B18660C3
:1076A00085B908958EBD00000DB407FEFDCF8EB5DF
:0676B0000895F894FFCFDD
:097F800031323334353637380054
:040000030000700089
:00000001FF
